:10200000008000207D4B0000654B0000654B000008
:1020100000000000000000000000000000000000C0
:10202000000000000000000000000000654B000000
:102030000000000000000000654B0000D14B0000D4
:10204000654B0000654B0000654B0000B94A00007D
:10205000654B0000654B0000654B0000694B0000BC
:10206000654B0000654B0000654B0000654B0000B0
:10207000654B0000654B0000D54A0000654B000031
:10208000654B0000654B0000A52D0000592D000098
:10209000792D0000654B0000654B0000654B00008A
:1020A000654B0000654B0000654B0000654B000070
:1020B0000000000010B5064C2378002B07D1054B1B
:1020C000002B02D0044800E000BF0123237010BDA4
:1020D000600200200000000034C50000044B10B571
:1020E000002B03D00349044800E000BF10BDC046E8
:1020F000000000006402002034C5000010B5040098
:102100004068002801D009F02DFB200010BD0A21F5
:10211000435E0200181E01D01B01D018704710B595
:102120000023884207D0984207D00133002902D00B
:1021300009F00AFC0300180010BD01235B42FAE716
:1021400070B50D00041E09D0C1682800FFF7E7FF35
:10215000002803D02000FFF7DAFFF3E7200070BD6E
:1021600003000020834208D01A7A7F308243100097
:102170000C22024301201A72196070474A688B686A
:102180001032934204D201230B74002318007047CD
:10219000103B8B60002BF9D04268002A08D0991AB6
:1021A00009115181002243605A811A72DA60EDE709
:1021B0000360F7E770B528C90400181E02D0290093
:1021C000FFF7DCFF20606560200070BD70B5050082
:1021D0000E1E15D00468002C04D02000FFF797FFD6
:1021E00086420ED13000FFF792FF002C0BD0031E69
:1021F00002D0031B1B111BB26381002800D16C604D
:1022000070BD0400E7E72860F7E70000F7B5037842
:1022100004000F002B2B1DD02D2B1CD101260134C7
:1022200023781A00303A092A02D92E2B00D0BFE0B9
:1022300000200A255F4922781300303BDBB2092BCE
:102240000BD888421CD8DA436843824218D3C0189E
:102250000134F0E701340026E2E7002A10D13B7A8E
:102260007F329343002E05D0753A13433B7238609A
:102270003000FEBD082213433B7238600126F7E7A9
:1022800000254D4B984205D90A21013506F074FA14
:102290006DB2F6E723781A00303A092A03D80135DF
:1022A0006DB20134F6E72E2B0FD10A21434A0134D7
:1022B0002378303BDBB2092B07D8904203D8484340
:1022C000013D18186DB20134F2E7202322789A43B9
:1022D0000023452A3AD162782D2A1FD102340133D6
:1022E0000193002321783039CAB2092A2AD80A2258
:1022F0005343CB18E918262922DD019A3B7A7F2027
:10230000002A11D00024002E01D0802424060C21A4
:1023100083430B433B723C60019EA9E72B2A01D00B
:102320000134DDE70234DBE7002E06D024490C221D
:10233000834313433B723960A0E7FF21C905F6E7E9
:102340000134CFE7019A002A00D05B422478002CA8
:102350002ED1ED1807F0E8FA002D1ADD01231D42F9
:1023600004D0184AA300D15806F07EFF01346D1046
:10237000E4B2002DF2D1002E02D080231B06C0183B
:102380007F223B7A386093431A000C2313433B723D
:1023900074E76D42002DEED001231D4204D00A4A9D
:1023A000A300D15806F060FF01346D10E4B2F1E7EC
:1023B00000265DE799999919FFFF7F00CBCC0C00AF
:1023C000000080FFDCBB0000C4BB000010B51E494C
:1023D000041C06F097FB00280AD01C49201C07F0BB
:1023E00075F81B4906F068FD002106F0CBFB10BD17
:1023F0001549201C06F0A4FB002816D01549201C06
:1024000006F08AFB002810D00F49201C07F05EF868
:1024100009F068F8104A114B07F0E2FD0022104B5A
:1024200007F0C2FA09F0B0F8E1E7201C09F05AF809
:1024300000220C4B08F050FC074A0B4B07F0D0FD74
:1024400000220A4BECE7C0460080BB440000FA4380
:10245000000020410010DB44333333333333244056
:102460000000594000629B403333254000405F40EC
:1024700070B50022002304000D0006F003FB0028C5
:102480001CD10022104B2000290006F0FBFA002886
:1024900016D10E4A0E4B2000290006F0F3FA002850
:1024A00010D100220B4B2000290008F015FC00225F
:1024B000094B07F095FD09F067F870BD0020FCE7B7
:1024C0000648FAE70648F8E70034A7401F85EB51B5
:1024D000B81ED53F00C8994000002B4000002042A4
:1024E000000020C21FB50122094B010001A81A708B
:1024F00003F091FC074901A803F0D8FC010006484D
:1025000003F0B4FC01A803F0DBFB05B000BDC0463E
:10251000FC03002056BD000098030020F7B5154CC1
:102520000700200002F034FA00266B4620255E7179
:102530001E71019A2000104902F052FA3100072062
:1025400002F052FE2B00013BFDD140212000394317
:1025500002F076FA3100200002F072FA0600013D26
:10256000FDD10121072002F03FFE200002F054FAC5
:102570003000FEBD5404002008E43B0070B5140098
:102580001D000600002200232000290006F07AFA30
:10259000002801D0134C144D002204980599002303
:1025A00006F070FA002803D00022104B0492059325
:1025B000300008F02BFF22002B0008F01BF900224E
:1025C0000B4B08F017F900220D0004000498059940
:1025D000084B08F00FF902000B002000290007F05B
:1025E000FFFC70BDB81E85EB51B80A400000F03FFB
:1025F00000408F400000DE40F7B504000D000229C6
:1026000002DC00242000FEBD080008F0FFFE0B00E5
:1026100080210200C905002004F096FF060020007A
:102620000F0008F0F3FE0022009001911C4B3000D7
:10263000390008F051FB02000B000098019906F0E8
:102640003BFA0028DDD12300681E0341DAD008F0F0
:10265000DDFE0F000B00802106000200C9050020EE
:1026600004F072FF00900191802132003B000020B5
:10267000C90504F069FF0022094B06000F0000980D
:10268000019908F029FB08F08BFE204008F0BEFEFF
:1026900032003B0008F020FB08F082FE0400B1E7A6
:1026A0000000F03F4006C00F704710B50120FFF753
:1026B00035FF0323184010BDF0B5050087B0C08E6C
:1026C0000C000F0007F030F908F00CFF0022374B28
:1026D00007F086FCD83738607960288F07F024F936
:1026E00008F000FF26000022314B07F079FCE036AD
:1026F00030607160288E08F0C3FE203E306071604B
:10270000688E07F011F908F0EDFE0022284B07F063
:1027100067FCB060F1601021A88EFFF76DFF254BBC
:102720001A00E03211685268D833029103921A6895
:102730005B6800920193029A039BFFF71FFF002240
:102740001D4B08F057F800221C4B08F0C5FA002278
:102750001B4B07F045FC00221A4B07F025F93061AE
:10276000716100267300E85A1021FFF745FF102120
:102770000290288EFFF740FF2300E0331A685B6861
:1027800004920593029B181A3A687B6800920193A1
:10279000049A059BFFF7F2FEF300E3180136186078
:1027A0005960182EDED107B0F0BDC0460000DE40F3
:1027B0000000A8408802002000408F4000820441B1
:1027C00000988140000039408006C00F704700002B
:1027D000F7B5154C0700200000250E0002F0D8F8D0
:1027E0006B465D711D71019A2000104902F0F8F8E6
:1027F00029000720203502F0F7FC2B00013BFDD11A
:1028000060212000394302F01BF93100200002F062
:1028100017F9013DFDD10121072002F0E5FC200060
:1028200002F0FAF8F7BDC0465404002008E43B006B
:1028300003000020002B03D05A1E13400130F9E79B
:102840007047000073B5124D0600280002F0A0F892
:1028500000246B465C711C71019A28000D4902F03E
:10286000BFF821000720203402F0BEFC2300013B0A
:10287000FDD13100280002F0E3F8013CFDD1012137
:10288000072002F0B1FC280002F0C6F873BDC04674
:102890005404002008E43B00F0B50026202785B052
:1028A0008020FFF7CFFF1B4D280002F071F802AB2C
:1028B0005E711E71039A2800174902F091F83100E9
:1028C000072002F091FC3B00013BFDD130212800A4
:1028D00002F0B6F83100280002F0B2F831000190A1
:1028E000280002F0ADF831000400280002F0A8F83A
:1028F0000600013FFDD10121072002F075FC2800F0
:1029000002F08AF8019B240218042043304305B0EA
:10291000F0BDC0465404002008E43B0010B5FFF7AA
:10292000C4FE0138C0B2022803D8034B8000C0584F
:1029300010BD0248FCE7C046F4BB000079AE0B4472
:10294000F0B58BB00700FFF7E9FF051C0020FFF78B
:102950006FFF0400FF20FFF76BFF24187F20FFF7B5
:1029600067FF2318281C029306F0F4F8019030202A
:10297000019B0321584305F0FFFE00260390029BB4
:102980009E423CDAFFF788FF040CE4B20500200009
:10299000FFF71AFFE30917D0002817D12000FFF72F
:1029A00081FE002824D11F23ADB21C40192C01D96F
:1029B000144BE4186400E553019B002B02D0039BE9
:1029C000013BFDD10136DAE7002811D00E4904A8F9
:1029D00003F0C0F904A907A803F01DFA07A8FFF740
:1029E00081FD07A803F06CF904A803F069F9E3E797
:1029F0002000FFF757FE0028DED00449E7E70BB0C0
:102A0000F0BDC046FFFFFF7F00BC000021BC0000FE
:102A1000F0B5374D00202B003649D8331860596087
:102A20002B0035493548E0331860596087B03220B3
:102A300002F012F90121080002F0D6FBC82002F0D2
:102A40000BF90121072002F0CFFB962002F004F9D8
:102A50000021022002F0C8FB0021080002F0C4FBA4
:102A6000962002F0F9F80121002002F0BDFBFA20C7
:102A7000400002F0F1F80024214B224EE15CA05D01
:102A80000134FFF7A5FE092CF6D10024375D38008C
:102A9000FFF744FD1A4B1B5D834214D01A49684668
:102AA00003F058F93900684603F0F0F9694603A8C5
:102AB00003F0B1F903A8FFF715FD03A803F000F92F
:102AC000684603F0FDF80134092CDFD1043C0F4EB9
:102AD000013C3000FFF734FF29003000FFF7ECFD28
:102AE0000A2002F0B9F8002CF1D107B0F0BDC046C1
:102AF000880200200000F03F51B80A40B81E85EB64
:102B000058BD000061BD00003BBD0000BC030020BB
:102B100010B501210F2002F01BFB2E490F2002F0FF
:102B20002DFA0121122002F013FB0021122002F0E5
:102B300025FA0121132002F00BFB0021132002F0E3
:102B40001DFA0121002002F003FB0121002002F008
:102B50004BFB0121080002F0FBFA0021012002F0EA
:102B600043FB0121022002F0F3FA0021022002F0CF
:102B70003BFB0021032002F0EBFA0121042002F0CC
:102B8000E7FA0121052002F0E3FA0121062002F014
:102B9000DFFA0121072002F0DBFA0121082002F010
:102BA000D7FA0121092002F0D3FA00210A2002F00D
:102BB000CFFA00210B2002F0CBFA00210C2002F00A
:102BC000C7FA00210D2002F0C3FA00210E2002F006
:102BD000BFFA10BDFF0300000C4A0D4B0D491A60EF
:102BE0000A004B78DB09FCD10B4B0C491960537878
:102BF000DB09FCD10A4B0B4919805178C909FCD17A
:102C0000094919805378DB09FCD170470430000072
:102C1000080C0040000C0040040C004004070300B6
:102C2000020C00401C4400001B440000C3220E4B59
:102C3000920010B51A800D4A1000D37BDB09FCD13D
:102C400080210B4B0903196001230A4C2178194399
:102C5000217009490C7823430B70084B1380C37B08
:102C6000DB09FCD110BDC0461830004200300042E4
:102C700000E100E00E3000420D300042220600006C
:102C8000104A114B30B51A80104A1000D37BDB0973
:102C9000FCD18021C524FF250D4B49031960A400F8
:102CA0001959A943195101230A4C2178194321705C
:102CB00009490C7823430B70084B1380C37BDB0955
:102CC000FCD130BD083D0000183400420034004201
:102CD00000E100E00E3400420D3400422205000005
:102CE000154B10B51868154906F0BEFAEA2189059A
:102CF00006F0BAFAFE21890506F0E8FB06F0AAFD07
:102D00000F4B104A80B218801000D37BDB09FCD136
:102D100080210D4BC902196001230C4C2178194305
:102D200021700B490C7823430B700A4B1380C37B33
:102D3000DB09FCD110BDC0462C00002000007A4405
:102D4000182C0042002C004200E100E00E2C004252
:102D50000D2C004222070000054B9A7BD20705D5B7
:102D60005B7BDB0702D50122024B1A707047C0461D
:102D7000003000420E300042074B9A7BD20709D543
:102D80005B7BDB0706D5054A13680133136001221C
:102D9000034B1A707047C0460034004208040020FC
:102DA0000E340042064B9A7BD20707D55B7BDB07CC
:102DB00004D50123034A1370034A13707047C046B9
:102DC000002C0042F70300200E2C004210B50C002E
:102DD000002805D0012809D1094B99420CDC0134A7
:102DE0002100132002F0CAF8200010BD0228F7D1FC
:102DF000002903DD013CF3E7024CF1E70024EFE793
:102E0000FE030000FF03000070B50123002803D07B
:102E100001DB032802DD0023180070BD881A06F0CC
:102E200039FD0F49051C05F081FE03230028F3D16D
:102E30000021281C05F07AFE012400280BD0084947
:102E4000281C05F069FE002800D1041CE4B263428E
:102E500063410133E0E70349281C05F071FEF2E706
:102E600000002040000020C070B504000D00312A91
:102E700005DC052002F0E4F90121012800D1002140
:102E8000052002F0B1F9032C27D8200005F06AFCD8
:102E9000020C121C0021042002F0A6F921001220CD
:102EA00002F06CF8200070BD0021042002F09CF9B3
:102EB0002C00F3E70121042002F096F9084B6C1C6A
:102EC0009D42EBDD074CE9E700240021042002F0DD
:102ED0008BF9A542E2DD6C1EE0E70024DEE7C04688
:102EE000FE030000FF03000000B5002A0FD10428F4
:102EF00005D805F037FC060E030A0800032210006F
:102F000000BD0029FBD00122F9E70422F7E70022E7
:102F1000F5E70222F3E710B50068FFF711F910BDDD
:102F200003000020834209D01A7A7F3082430029AF
:102F300005DB773802431A721960073870470A2098
:102F4000494202431A7219600938F7E7202210B586
:102F5000037A13401A1E02D0FFF7DDFF02001000B3
:102F600010BD10B5002801D0FFF7D5FF10BD03003C
:102F700010B5D9684068FFF7F4FF0200031E0CD0BB
:102F80007F23007A1840063806282DD805F0EAFB82
:102F9000262C1D2C042C0A000423013B58425841C6
:102FA000C0B210BDFE2114688905201C05F0AAFDE1
:102FB00004230028F1D1FE21201C890505F0B6FD6F
:102FC0000300581E83410133E7E7106804230028FB
:102FD000E3D0033B83429B415B42F4E71268012349
:102FE000002ADAD10333D8E70023D6E7437C002B4D
:102FF00006D1C3685A1CC2601B7803740123437452
:10300000007C704710B504002000FFF7EFFF0A288E
:1030100006D8092808D2002809D0012020720CE027
:103020000D2801D02028F8D100236374ECE7237A1F
:1030300058345A1E93410133237010BD1FB57F22AF
:103040000300007A10400438082832D805F08AFBC3
:103050001313053105310B311E001868C343DB170C
:10306000184004B010BD80221B6812060020934255
:10307000F7D85842F5E71868002301AC2372210005
:10308000FFF7C4F82000FFF7D9FFEAE7CF211C685B
:103090000906201C05F054FD0028E2D09E21201CCA
:1030A000C90505F039FD0028DBD0201C06F0D2FB55
:1030B000D7E70020D5E71FB57F220300007A104034
:1030C000043808281FD805F04DFB1111051E051EF8
:1030D0000A1E1C00186806F027FC04B010BD186812
:1030E00006F022FC80231B06C018F6E718680023B0
:1030F00001AC21002372FFF789F82000FFF7DBFF06
:10310000EBE71868E9E70020E7E710B5002802D0F0
:10311000FFF7D1FF10BD0020FCE770B504000D00E3
:10312000FFF764FF0023A84201D163740133180044
:1031300070BD2F2815D90123392803D95E2803D95A
:103140007A2803D81800704740280AD901235A2842
:10315000F8D9002301222D38C0B282425B41DBB294
:10316000F0E701232B28F4D1ECE7F7B509680F68E5
:103170003C1E22D002684468944215D93D001300D9
:103180002E78B4465E1C01961E78664504D1002E4A
:1031900008D00135019BF3E71D7801331A00002D9B
:1031A000FAD1E9E7002A15D18D6882686B1CE31813
:1031B000934204D90123002403742000FEBD436020
:1031C000002CFAD009682A00200008F0E7FA002352
:1031D0006355F2E71400F0E7F0B5037A85B00F000D
:1031E00001927F211A0005000A4005D18B435F3907
:1031F0000B4303720260426020222B7A1340181E98
:103200002AD03E68301E27D02C68002C19D0E168E7
:103210003000FEF784FF002811D02000FEF777FF72
:103220000400F2E703A901980397FFF79EFF002827
:103230000DD08023227A5B4213432372E06020008A
:103240000AE001992800FEF799FF041EEAD1280040
:103250002100FEF7BBFF002005B0F0BD70B50D00EA
:1032600004002800110014302A00FFF7B5FF0028E1
:1032700009D07F22037A93431A0040231343037239
:1032800000230360436020606560200070BD000083
:10329000F0B59DB007000D0003A8DE491E0002F046
:1032A00059FDDD4906A802F055FDDC4909A802F0E8
:1032B00051FDDB490CA802F04DFDDA490FA802F0E0
:1032C00049FDD94912A802F045FDD84C7F21636819
:1032D000621CA360236915A8E36000232375D37FD4
:1032E00004348B43D37703A902F095FD15A919A8DF
:1032F000189402F090FD15A802F0E2FC1898189AB4
:1033000019A91430FFF768FF3900FFF709FE19A863
:1033100002F0D6FC06A915A8002D00D13FE102F06D
:103320007AFD15A919A8189402F075FD15A802F0E8
:10333000C7FC189819A91430189AFFF74DFF0121FE
:10334000FFF7EEFD19A802F0BBFC09A915A8002E95
:1033500000D136E102F05FFDB44B15A9043319A882
:10336000189302F058FD15A802F0AAFC189819A9A4
:103370001430189AFFF730FF0121FFF7D1FD19A88B
:1033800002F09EFC0CA915A802F045FDA74C15A95A
:10339000231D19A8189302F03EFD15A802F090FC19
:1033A000189E19A9300032001430FFF715FF051ED2
:1033B00009D0229B00931B68002B00D015E17F22CF
:1033C000037A93432B7219A802F07AFC601CC37F26
:1033D0007F211A000A4005D18B435F390B43C37725
:1033E000A261E2612022631CDB7F1340181E14D00F
:1033F0008F4EA0693100FEF7A3FE00280DD12700F3
:103400001837211D3800FEF7B9FE051E00D0FBE07D
:1034100001003800FEF7DAFE28000121FFF780FDE9
:103420000A22002118A802F0B4FC18A90FA802F083
:103430001DFD18A802F044FC0A22002118A802F081
:10344000A8FC18A912A802F011FD18A802F038FC77
:10345000211D0FAA01A8FFF701FF239D239E4035E0
:10346000E83601A918A8FEF7A5FE03CD08F08CF8F0
:10347000011C1898FEF774FEB542F2D112AA211D64
:1034800015A8FFF7EBFE15A918A8FEF793FE2499DF
:103490001898FEF765FE15A918A8FEF78BFE25996A
:1034A0001898FEF75DFE15A918A8FEF783FE269969
:1034B0001898FEF755FE0A22002118A802F069FCB0
:1034C00018A903A802F071FD010003A802F08EFD07
:1034D00018A802F0F5FB0A22002118A802F059FCF6
:1034E00018A906A802F061FD010006A802F07EFD01
:1034F00018A802F0E5FB0A22002118A802F049FCF6
:1035000018A909A802F051FD010009A802F06EFDFA
:1035100018A802F0D5FB0A22002118A802F039FCF5
:1035200018A90CA802F041FD01000CA802F05EFDF4
:1035300018A802F0C5FB0A22002118A802F029FCF5
:1035400018A90FA802F031FD01000FA802F04EFDEE
:1035500018A802F0B5FB0A22002118A802F019FCF5
:1035600018A912A802F021FD010012A802F03EFDE8
:1035700018A802F0A5FB12A802F0A2FB0FA802F007
:103580009FFB0CA802F09CFB09A802F099FB06A87F
:1035900002F096FB03A802F093FB1DB0F0BD02F011
:1035A0003AFC15A919A8189402F035FC15A802F0E8
:1035B00087FB189819A91430189AFFF70DFE2900F7
:1035C000BEE602F028FC194B15A9043319A818937C
:1035D00002F021FC15A802F073FB189819A9143009
:1035E000189AFFF7F9FD3100C7E669463000FFF78A
:1035F000BCFD7F222B7A9343002800D1E2E605220E
:1036000013432B722860DEE67F22037AC6601340E4
:10361000037201E73FBC000047BC000051BC000042
:103620005CBC00006ABC000073BC00007403002096
:103630007DBC000037B500236A461370C3B27F28F3
:103640000BD853706B460233013B1878002831D0F9
:103650000A68541C0C601070F6E73F2480226D4607
:1036600023405242134380096B7085B2C3B21F2DB1
:1036700006D8403213436A4693706B460333E3E740
:103680006D46234000041343800DAB70C3B20F2876
:1036900005DC202252421343EB7001ABD4E71C40FF
:1036A000102380115B4218436B462243EA70287155
:1036B0000533C9E737BD0000F7B505000027FFF760
:1036C00095FC6F7401902800FFF790FC0024019A8C
:1036D00003006C74824259D0A04204D102235835B1
:1036E00000202B70FEBD5C284BD12800FFF77EFC2C
:1036F0000028F3D0284B752839D104266C74280093
:10370000FFF774FC0028E9D0402806D83038C0B252
:103710000F2806D958350323E2E72023984337388A
:10372000F5E700232401013E0443F6B2A4B26B7412
:103730009E42E4D1A0239B01E318184A9BB2934216
:1037400002D8A405A70DBEE790239B01E3189BB206
:103750002000934206D880238005BC02800D2043C0
:103760005B02C0182900FFF765FFACE702331A7847
:10377000002ACFD09042F9D15B78002BCAD000222A
:103780006A742A68511C296013709CE72B68012019
:103790005A1C2A601C70A5E772BD0000FF030000E0
:1037A000036870B543600400FFF720FC27280DD0A4
:1037B00022280BD02000FFF719FC0500FFF7B9FC09
:1037C000061E09D103235834237003E02000FFF7BD
:1037D00073FF0600300070BD00236374236820006F
:1037E0005A1C22601D70FFF701FC0500FFF7A1FCC9
:1037F0000028F1D123685A1C22601870EAE7F7B557
:1038000004000D001F1CFFF7FDFB0190002801D1F3
:10381000002658E02000FFF7E9FB272800D17BE0D5
:103820001DD8222800D177E02000FFF7DFFB00261B
:1038300000900098F7B2FFF77CFC002800D17EE0F2
:103840000136402E00D179E06A4600231278637475
:10385000A319DA752000FFF7C9FB0090E9E75B28A0
:1038600013D07B28E0D17F222B7A290093431A00C2
:10387000202313432B72002300222B606B60200057
:103880003B1C00F087F806001DE07F222B7AFFB278
:1038900093431A00402313432B7200232B606B6069
:1038A0009F4203D1583406332370B1E7637420007C
:1038B000FFF7A8FB0028ABD05D212000FFF72DFC0F
:1038C000061E02D0019E3000FEBD61692800FEF791
:1038D00055FC011E03D1042358342370F3E77B1EEB
:1038E00000222000FFF78BFF002800D190E7200086
:1038F000FFF788FB002800D18AE75D212000FFF751
:103900000CFC0028DED12C212000FFF706FC00284B
:10391000DBD158340323C7E7236820006360FFF737
:10392000CBFE061E00D173E77F2263682B602B7AE3
:1039300093431A00042313432B72C4E73F2700214B
:10394000E3191976237E742B0DD17F222B7A9343B2
:103950001A00062313432B7201232B60042FB1D0CE
:1039600058340223A0E7662B0AD17F222B7A2960E4
:1039700093431A00062313432B72052FF0D1A1E7BE
:103980006E2BEBD0200029001830FEF73FFC0028FA
:10399000BFD097E7F7B5DEB204000091002E04D146
:1039A00006235834237000250DE000234374FFF7ED
:1039B00029FB01900028F6D07D212000FFF7ADFB08
:1039C000051E35D0019D2800FEBD676800983900AE
:1039D000FFF7A1FA00280DD161690098FEF7CEFB30
:1039E000002802D15834042334E07F22037AC760D0
:1039F000134003720100731E00222000FFF7FFFE38
:103A00000028D0D02000FFF7FDFA0028CBD07D2180
:103A10002000FFF782FB0028D4D12C212000FFF7E3
:103A20007CFB002814D02000FFF7ECFA0028BAD065
:103A30002000FFF7B5FE0028B5D02000FFF7E2FA1E
:103A40000028B0D03A212000FFF767FB0028BCD146
:103A5000032358342370B6E710B5040000680368E8
:103A60005B68984763681818606010BD70B5050002
:103A700008000C0007F07AFF210002002800FFF781
:103A8000EBFF70BDF0B5162407000D000A2687B0C5
:103A90006C442800310004F0F5FE013C3031217007
:103AA0002800310004F068FE051EF2D116236B4495
:103AB0001A1B21003800FFF7CFFF07B0F0BD000050
:103AC0000623F7B50E1C070083725849301C05F019
:103AD00037F8002844D00023142420250093544BA9
:103AE000311C185905F018F8002809D0514B301C2A
:103AF000195905F0B9FB009B061CE81803B20093A6
:103B0000043C6D10231DEAD103340021301C05F064
:103B10000DF8002828D0301C07F0E4FC464A474B3B
:103B200004F0C0FF00281FD0A300019323061BD47C
:103B3000434B019A311C985804F0F8FF00280AD032
:103B40003B4B019A301C995805F08EFB009B061CDC
:103B5000581B03B20093019B6D10013C043BE4E74A
:103B6000202505240090D0E76B461B88301C3B8144
:103B700004F0F0FF0400334D38600190019B092BE5
:103B80000DD90A21280004F0F7FDBB7A0500013B9E
:103B90000198BB720A2104F0EFFD0190EEE72000CE
:103BA00005F0C2FE011C301C05F090FC061C28002C
:103BB00005F0BAFE011C301C05F056FB019004F024
:103BC000C9FF060005F0B0FE011C019805F07EFC5F
:103BD000011C04F0D7FF04F0BDFF8619AE4214D2D9
:103BE0007E600A257E682900300004F04BFE002923
:103BF0001AD10A243C57002C16DD2900300004F0AD
:103C0000BBFD013C7860BC72ECE700237B60009B4D
:103C100001343C60002BE4D0092CE2D918000123C8
:103C2000013038813B60DCE73800FEBD8096184BE0
:103C3000DCBB0000C4BB0000F168E388B5F8E43EDB
:103C4000ACBB000040420F0010B5040000680368E0
:103C50001B68984763681818606010BD70B50D0048
:103C6000040022212000FFF7EFFF2978002909D066
:103C70000A4B01351E78002EF4D05A788A4206D0BD
:103C80000233F7E722212000FFF7DEFF70BD5C2141
:103C90002000FFF7D9FF3100E4E7C04674BD000003
:103CA000F0B504008DB0081C0D1C04F025FF0028A1
:103CB00005D14F492000FFF7D9FE0DB0F0BD00211E
:103CC000281C04F019FF002809D1291C281C04F025
:103CD00059FF011C281C04F00FFF0028E9D1002126
:103CE000281C04F00FFF002806D02D212000FFF72C
:103CF000ABFF80231B06ED1803AF291C3800FFF72C
:103D0000DFFE03992000FFF7BDFE0A23FB56009358
:103D1000002B23D07E6801930AAD019B013D013B3E
:103D20005BB2019301330BD030000A2104F0AAFDED
:103D30003031297030000A2104F01EFD0600ECE746
:103D40006B461B782025D9432E224B1902A8C2545A
:103D50000AAB4A4220005918FFF77EFE0822BB5EDC
:103D6000002B1EDA262523492000FFF77FFE0823BB
:103D7000FE5E02AB7642ED1830000A2104F06CFEC4
:103D8000013D3031297030000A2104F07FFD061E0C
:103D9000F2D1262302AA9B185A1B29002000FFF704
:103DA0005BFE0822BB5E002B00DC86E7652120005D
:103DB0002625FFF749FF0823FE5E0A2702ABED1810
:103DC0003000390004F048FE013D303129703000E8
:103DD000390004F05BFD06B2002EF1D1262302AAC1
:103DE0009B185A1B29002000FFF736FE65E7C046E6
:103DF0006ABD00006FBD00007F2270B5037A050028
:103E00000C001340062B00D166E008D8022B0DD31E
:103E1000032B50D806CD2000FFF71EFE25E00C2B0B
:103E20001FD005D8082B55D00A2B49D02F4958E070
:103E3000202B21D0402BF9D15B212000FFF704FF7C
:103E40002D68002D13D021002800FFF7D5FF280092
:103E5000FEF75DF9051E0AD02C212000FFF7F4FEC5
:103E6000EFE701682000FFF71BFF606870BD5D2170
:103E70002000FFF7E9FEF8E77B212000FFF7E4FED2
:103E80002D68002D15D0E9682000FFF7E7FE3A21E4
:103E90002000FFF7D9FE21002800FFF7ADFF280022
:103EA000FEF735F9051E04D02C212000FFF7CCFECB
:103EB000E7E77D21DCE701682000FFF7CFFED4E7CC
:103EC00005682D212000FFF7BFFE29002000FFF725
:103ED000D9FDCAE70168F9E703680549002B00D15D
:103EE00004492000FFF7C2FDBFE7C0466ABD0000DD
:103EF00083BD000088BD00001FB50023019118306C
:103F000001A90293FFF778FF05B000BD70B5184D09
:103F100086B01849280001F01DFF174C17492200F0
:103F2000280003F00AFBC820800007F011FC031EE4
:103F300002D0C8239B00C3180022019002901048B1
:103F40000393049301AB1A74021D62CB62C222CBAD
:103F500022C27F21421CD37F8B43D37709492200A1
:103F600003F0EBFA084800F0A3FD06B070BDC046B0
:103F70009803002082BD000000000020C15C00000A
:103F800074030020FD200000F6030020F0B5A1B06E
:103F90006B4600AF7B600C23AD49F81801F0DAFEE8
:103FA00008221023BA18AB49D01801F0D3FEAA4C4E
:103FB000AA49200001F024FA200002F05BF9002851
:103FC000FAD0A749200001F01BFA08221C23BA18D6
:103FD000D51821000A22280001F032FC0C23290008
:103FE000F81801F022FF280001F06AFE200002F01C
:103FF00041F900280ED108221023BA18D118043B29
:10400000F81801F084FF0028F0D09649200001F054
:10401000F7F9EBE70C260A222100280001F010FC3A
:104020002900B81901F001FF280001F049FEB91973
:10403000200001F0DBF969467B69B8195A1C083386
:10404000DB08DB00CB1A9D460023694601F06DFFBB
:104050007F21854C661CF27F63688A43F2776A464B
:10406000A36023697A62E3606A460023BB622B7215
:104070003A63221D6A6174227739781881186B744B
:104080000B702100237500220A2318312800FFF746
:10409000B6FB08237422FB189B181B78002B08D151
:1040A0002B7C002B2AD0F37F0B321A400C2A1FD115
:1040B000032308251C246D4A9B0099587B19181965
:1040C00001F048FE7B191819FEF70CFA7B19181934
:1040D00001F0F6FD10237A19D01801F0F1FD0C2340
:1040E000F81801F0EDFD7B689D46BD4621B0F0BD9E
:1040F0007D221340082B01D1053BDAE720005C4903
:104100001830FEF723FF002801D0FEF797FF2500A7
:10411000584B1835186058492800FEF717FF28003B
:104120005649FEF713FF051E05D02022037A1340DF
:104130001D1E00D00500200051491830FEF706FF73
:10414000061E05D02022037A13401E1E00D0060052
:104150004C492800FEF705FFFEF7D7FF4A4B4B49B5
:1041600018602800FEF7FDFEFEF7CFFF484B4949D7
:1041700018602800FEF7F5FE0023984202D0FEF7F3
:104180005DFF0300444A454928001360FEF7E9FE3D
:10419000FEF7BBFF424B434918602800FEF7E1FEE3
:1041A000FEF7B3FF404B08221860231DFB623F4B14
:1041B000BA183B631C23D018BD62FEF7D8FE002856
:1041C00002D001233A4A13703A4B08223B631C2366
:1041D000BA180434D018BD62FC62FEF7C8FE00288D
:1041E00002D00122344B1A7026493000FEF7B9FE86
:1041F000002802D03149FEF7A9FE24493000FEF71D
:10420000B0FE002802D02D49FEF7A0FE2149300063
:10421000FEF7A7FE002802D02849FEF797FE1F49A7
:104220003000FEF79EFE002802D02449FEF78EFEE5
:104230001C493000FEF795FE002802D01F49FEF70A
:1042400085FE01231A4A137008220F33BA1843E778
:1042500082BD000097BC0000FC060020A3BC00004B
:10426000ACBC0000B6BC00007403002004000020B9
:1042700044BC000000040020BCBC0000C8BC00001E
:10428000D4BC0000E7BC000024000020F3BC000008
:1042900020000020FCBC00002800002006BD00001B
:1042A0007003002015BD00002C00002021BD00007F
:1042B000040400202CBD00000504002036BD0000D1
:1042C00070B52C4C2C49200000F05AFAE121200056
:1042D000490200F047FA0121200000F02DFA274D95
:1042E00000280AD02649280001F074F820000A218D
:1042F00000F0D7F9200000F034FA0021200001225C
:1043000000F002FB0121200000F016FA002806D080
:104310001C49280001F05EF8200000F022FA0A2073
:1043200000F0F4FD052000F0F7FDFEF7F1FBFA20A8
:10433000800000F091FCFEF76BFBFA212800890257
:1043400002F02AF8280002F033F80028FAD0FFF72C
:104350001DFE280002F022F8FEF73EFCFEF7C0FC2E
:10436000FEF764FCFEF78CFC62B60022064B1A6076
:1043700070BDC0460C040020B80B0000FC060020F5
:1043800090BD0000A1BD00000804002070B51D4CC8
:10439000200001F06FFF1C4D00281ADD200001F005
:1043A000A5FFC0B2672814D121002800FFF7A4FDA3
:1043B000200001F013F8200001F05CFF0028FAD083
:1043C000200001F093FF6428FAD11049200001F089
:1043D00017F8FA212000890201F0DEFF21002800F1
:1043E000FFF78AFD200001F055FF01220849200057
:1043F00001F05EFF200001F04DFF200001F0CEFF34
:1044000070BDC046FC0600207403002092BC000072
:1044100085C10000F0B58DB004284BD804F0A2F996
:10442000034C60689600534D534C2B78002B30D0D2
:10443000FEF76EFB514B1F682D782378EDB2DBB28F
:1044400009AC07934E4B4F4920001E7801F0E3FC66
:104450004D4B4E4A18684E4BF6B21B6812680393D8
:10446000049205F017FA4B4B02900193009433002D
:10447000079A29003800FEF70BFF200001F020FC0E
:10448000454C2378002B15D0FFF780FF00232370C5
:1044900010E02378002B0DD0404B4149186804F000
:1044A000E3FE404904F008FD05F0D4F901000F20B7
:1044B00000F064FD0DB0F0BD3B4B1968324B1A683B
:1044C0003C234B43934202DC01222A4B1A70374CA7
:1044D0002000FEF735FA2F492000FEF7EDF8E9E756
:1044E000264B1F68234B1D78234BEDB21B78A6E7A4
:1044F000284B986CD96C07F047F8FDF767FF244C00
:104500002B4D20602B68276807932A4B186805F00D
:10451000A1F90600381C05F09DF93200010007984A
:10452000FEF772FC28602E68234D2F68206805F086
:1045300091F90400381C05F08DF9220001003000CB
:10454000FEF792FC05F0A6F92860B3E7114B186C52
:10455000596CFDF78DFF0D4D184C194E28602068E1
:104560003168FEF733FC306023682B682B6800232A
:1045700023609FE7050400200404002000040020BD
:10458000FC0300209803002008040020B40300204E
:10459000B803002088020020F7030020200000203C
:1045A00000C07F4400600B4528000020BC030020B1
:1045B000A403002024000020A8030020AC03002056
:1045C000B003002070B500F011FB002837D0264C56
:1045D000200000F06BF8254B1860254B1A689042BC
:1045E00040D31A68821AF92A2DD9FA211860490095
:1045F000200000F03FF90121200000F09DF8002884
:1046000015D00121200000F055F81A4D1A49280054
:1046100000F0E0FE00F0EAFA0A220100280000F0B3
:104620001DFF200000F07EF8200000F09AF8200026
:10463000052100F036F8200000F02AF903E000F030
:10464000D5FA0128C3D80D4C0D4B206819780D4BB5
:10465000C9B21A78D2B2FEF747FC20602068FFF793
:10466000D9FE70BD1860BCE70C0400207C0200205D
:1046700080020020FC0600208EBD0000F803002010
:10468000040400200504002070B50C0000F0AEFA10
:104690000500241800F0AAFA854201D88442F9D214
:1046A00070BD10B50122FFF7EFFF10BD10B500F08F
:1046B0009DFA10BDF8B506000F0000F097FA05004E
:1046C000144C1549200000F085FE0A223900200014
:1046D00000F0D0FE1149200000F07CFE29000A22E3
:1046E000200000F0BBFE0E4F2000390000F072FEEB
:1046F000B3680A22E91A200000F0B0FE3900200059
:1047000000F068FEB168F3680A22C91A200000F0C0
:10471000A5FEF8BDFC06002006BE00000DBE000090
:104720000FBE000010B50249024800F069FE10BD3E
:10473000FFBD0000FC06002010B5040000290BD1CD
:1047400000F054FA6368C01A632805D86421012276
:10475000091A2000FFF798FF00F048FA6060012076
:1047600010BD7047FA2010B50C00800000F074FAFC
:104770002100024801F010FE10BDC046FC060020DA
:10478000002310B543644360994201D0FFF789FFCD
:1047900010BD000070B505000E0000F027FA0A4CAD
:1047A00068600A49200000F015FE0A22310020004E
:1047B00000F060FE0649200000F022FE28003221B1
:1047C000FFF76FFF70BDC046FC060020F1BD000082
:1047D000F8BD00000022034B9A60DA601A615A614A
:1047E0007047C0460C04002010B5024801F07EFD61
:1047F000C0B210BDFC06002073B51D4C06002000A1
:1048000001F066FDC0B2642830D13000FFF7ECFF44
:10481000200001F06BFD0025C3B201A83A2B07D0A0
:104820004355200001F062FD0135EDB2C3B2F4E75B
:1048300006F04CFF0500200001F058FDC1B23039F0
:10484000012902D8280000F0CFFC200001F04EFD25
:10485000C0B20A2801D00D28F7D1200001F038FDA0
:10486000C0B20A2802D13000FFF7BEFF73BDC046B8
:10487000FC060020002310B5436183680161C3601A
:10488000040000F0B3F9A0602000FFF7B5FF10BDF1
:1048900010B50400FFF7B0FF00F0A8F9A06010BD4C
:1048A000F7B50191037E05006320002B08D0154E5B
:1048B000FF27300001F0DEFCC0B2002801D16520E6
:1048C000FEBD300001F0D6FCC0B20028F7D03000A9
:1048D00001F00CFD04003C40682C08D009DC582C89
:1048E0000DD0632CEDD101992800FFF753FF632011
:1048F000E6E7712CFBD0762CE3D1C0B2E0E70023D1
:104900002B76F4E7FC06002070B5040015000029A2
:104910000CD00123037600212000FFF7C1FF63289C
:1049200004D001212000FFF7BCFEF4E7257670BD1E
:10493000037D002B04D143758375836101330375B7
:1049400070477FB5C36802AD04000E0002916A6033
:104950008B4203D1028AAB889A4218D020000622EB
:1049600029000C3006F01AFF206800F08EFE6B79EB
:10497000227AE17900932068002300F027FF206865
:104980002979320000F052FE206800F074FE7FBDED
:1049900070B518260400FFF7CBFF330008212079FB
:1049A0000D4D4343EB18595600F062FC33000821CB
:1049B000A0794343EB18595600F05AFC082160795E
:1049C0004643AD19695600F053FC044B200006CB5A
:1049D000FFF7B7FF70BDC04614BE00008C04002076
:1049E00007B5437D00910192002B07D09A070AD5A5
:1049F000EFF310835A425341837572B60099019ABE
:104A0000FFF79FFF07BDDB07F8D58369014A9BB21B
:104A10009360F3E700180040437D002B05D09A0710
:104A200004D5837D002B00D062B67047DB07FCD530
:104A30008369024A9BB2D360F7E7C0460018004082
:104A400010B5006800F02AFE10BD0000104A114B9E
:104A500011491360002353711371104A10481160FB
:104A60001049D360918009219171063953741374F0
:104A70001375D37111720C4A10600C48D36090808A
:104A80001B205374137413759071D3711172704796
:104A90008C04002000093D00D806002054040020AA
:104AA000E40600200A080000700400201D1A00001F
:104AB0000023037070470000044B10B51B68002BE7
:104AC00000D098470122024B1A7210BD94040020B6
:104AD0000014004010B5024801F00BF810BDC046AC
:104AE0009804002013B51249124800F015FD124930
:104AF000124800F011FD1249124800F00DFD124954
:104B0000124800F009FD1249124800F005FD124C50
:104B10001249200000F000FD0123019302330093AD
:104B20000D220B3321000E4800F078FF13BDC04664
:104B300000080042D4060020000C0042D8060020E5
:104B400000100042DC06002000140042E0060020B5
:104B500000180042E4060020E8060020001C004285
:104B600098040020FEE70000034B10B51B68002BE3
:104B700000D0984710BDC046EC06002070B50F4924
:104B80000F4CA14204D100F08FF800F0D3FBFEE7F8
:104B90000C4D00238D42F6D0CA18E818A24205D366
:104BA000094B8242EFD00949002204E00068043337
:104BB0001060F1E704C38B42FCD3E4E7000000205F
:104BC0006002002038C5000060020020300D002087
:104BD00010B500F066F8002801D100F057F810BDBC
:104BE000014B18607047C046EC060020014B186866
:104BF0007047C046F0060020F7B5134801228446EE
:104C00001249134C8E68636805689B0E134001922D
:104C100088686268019F920E3A4067463F689342F7
:104C20000ED1BD420CD186420AD35B19FA254868E1
:104C3000AD00861B07486B437043000DC018FEBDD6
:104C40003D0013000600E3E7F006002010E000E05E
:104C500000ED00E05555000070B5041E10D0FFF7C0
:104C6000CBFF050000F01CF8FFF7C6FF054B401B0B
:104C70009842F7D9FA23013C9B00ED18002CF3D1A0
:104C800070BDC046E70300007047000010B5034A3E
:104C900013680133136000F003FC10BDF006002020
:104CA00070470020704700001E2270B546484749F3
:104CB000436893431C3A1343436008238C6923439E
:104CC0008B61434C434B9C829C8A14439C82DC68DE
:104CD0001442FCD00124404A14701578254203D0B8
:104CE00055786DB2002DF8DB01249460547864B2DD
:104CF000002CFBDB394C5460547864B2002CFBDB95
:104D00008224E4015480547864B2002CFBDB02243A
:104D10009C840E34DD682542FCD0314CDC621024CA
:104D2000DD682542FCD09D8C2E4C2C439C841024A5
:104D3000DD682542FCD002249D8C80262C439C8477
:104D40004024DD683542FCD0DD682542F9D01024CE
:104D5000DD682542FCD000249460547864B2002CB5
:104D6000FBDB214C5460547864B2002CFBDB1C6AE2
:104D70001E4D2C4080251C621C6AAC431C62032320
:104D800093601B4B536053785BB2002BFBDB00231B
:104D9000FF240B72174A4B728B72CB72164B1A6040
:104DA000164B174A1B6811689A065B01C90E23400F
:104DB000520F12020B431343124A13858023426899
:104DC0001343436070BDC0460040004100040040F2
:104DD0000C06000000080040000C00400105010026
:104DE000B905FF7D040A000000070300FFFCFFFF78
:104DF00003060100006CDC024800002024608000F3
:104E00002060800000400042FA21314B10B5186844
:104E1000890003F0B1FC2F4B0138984256D82E4937
:104E20002E4A4860C020136A00061B021B0A034377
:104E30001362002407238C600B608021136A09062B
:104E40001B021B0A0B431362FC22254B196A0A43FF
:104E50001A62FC22196A92010A431A62A022196A94
:104E6000D2020A431A6220000021013400F070F9D6
:104E7000162CF8D11B4B1C005A7852B2002AFBDBCF
:104E8000194A5A80194B1A00597EC9090129FBD0C9
:104E9000E421C90099803F21D970537EDB09012BA1
:104EA000FBD0C02300205B011361907000F034F848
:104EB00063785BB2002BFBDB0D4B0E4A6380D3792A
:104EC000DB09012BFBD04123537010BDFEE7C04628
:104ED00048000020FFFFFF0010E000E000ED00E0D0
:104EE00000040040000C00401E4000000040004252
:104EF0002140000000480042914202D002D98A1AA3
:104F0000D0407047521A9040FBE70000014B1860F8
:104F10007047C0464C000020164A00B51300517E71
:104F2000C9090129FBD00138042816D81969124A89
:104F30000A400F211A615A788A4303F013FC0308D0
:104F4000060B0300110001220A435A7000BD110034
:104F50000322F9E711000222F6E7F02311691B058D
:104F60000B430F21136153788B43190002230B432A
:104F70005370EBE700400042FFFFFFF0182343436C
:104F8000F0B56A4A87B09B18DA6806000C000092F8
:104F9000920722D51B7C5BB2002B01D0142B1AD1B7
:104FA000634B0A2219682000FFF7A6FF614A13002D
:104FB000D179C9090129FBD08005800D1081DA79EA
:104FC000D209012AFBD0022219780A431A70DA7931
:104FD000D209012AFBD007B0F0BD0827009A544D32
:104FE0003A40019200D191E012229B5E2968200094
:104FF00010220193FFF780FF019B05001F126B46F3
:105000001C79009B0421DB0600D40521300000F050
:105010002FF9494BBA00D658484BDA5D002A54D1D3
:105020000132DA5546490F3202A806F0B7FB02AA50
:105030007B009B5A8022D2011A43424B5A805A78F5
:10504000D209012AFBD0022297421BD9338893430D
:105050003380F37BDB09FCD1328840331343338048
:10506000F37BDB09FCD10C34ADB26400A553F37BB8
:10507000DB09FCD13288023313433380F37BDB0935
:10508000FCD1A8E7336893432F4A33601300B1681B
:105090001142FCD10222F16B0A43F263B2681A4258
:1050A000FCD11034A40034196560B2681A42FCD1F6
:1050B000264A3264B2681A42FCD1022231680A439D
:1050C0003260B2681A42FCD185E7022F07D90C344E
:1050D000ADB26400A553F37BDB09FCD17BE702236F
:1050E000727913437371184B1A00B1681942FCD1DD
:1050F0001C34A400A551B3681342FCD102233179BA
:105100000B433371B3681342FCD164E7012100F013
:105110001FF829683A002000FFF7EEFE01997F286A
:1051200000D90121300000F05FF854E714BE000000
:105130004C0000200048004230000020F40600200F
:1051400074C10000000C0040FF0F7F00FFFF000053
:10515000182330B51D00040045430820204A551986
:105160002856013014D0032912D808006343D156C1
:10517000D31803F0F7FA02280E1B5868CB0102215E
:10518000184A9B181A1840321170012282405A6046
:1051900030BD5868CB010621124A9B181A184032BC
:1051A0001170012282405A609A61F1E75868CB0180
:1051B00006210C4A9B181A184032117001228240B5
:1051C0005A605A61E4E75868CB010221054A9B18EE
:1051D0001A1840321170012282409A60D8E7C04606
:1051E00014BE0000004400411823F0B508245843C1
:1051F000114A13181C5701341BD0012635005F6873
:105200008356BD400D4ADB019A18906805420BD1C8
:105210000C00601E8441D2194032107834400336AD
:10522000A400B04320431070044A9B18002901D108
:105230005D61F0BD9D61FCE714BE000000440041CB
:10524000182310B50824434307490020CA181457EF
:10525000013408D05B560549DB015B18186A5368B6
:10526000D8400123184010BD14BE00000044004186
:1052700018224243F8B52C4E0300B218127A52B2EB
:10528000140001320ED0481C00240C280AD803F068
:1052900069FA071F1F1F1F1F1F1F1F0B0B0B0B0080
:1052A000012464422000F8BD092905D1002118001D
:1052B000FFF74EFF0024F5E70A2901D10839F6E788
:1052C00000240B29EED10A391800FFF741FFE9E766
:1052D00018225343F218556801202C00F356134A44
:1052E000DB016E089B18C9B204409E19002C0DD03A
:1052F0000F2430363278090122401143C9B25B19BC
:10530000317040331A7810431870D3E732000F27FA
:10531000303216785B19BE433143117040331A782E
:1053200010431870BEE7C04614BE000000440041A0
:105330007047000010B5FFF767FD06F0E1F9FFF7D1
:10534000F7FF0120FFF788FC084C200001F056FB16
:10535000200001F0F5FBFEF7B3FFFFF733F9044B34
:10536000002BFAD000E000BFF7E7C046640700203A
:1053700000000000F7B506000D000C008B1801932B
:10538000019B671B9C4207D0336821781B68300063
:10539000984701340028F3D13800FEBD70B50400F1
:1053A00008000D0006F0E2FA2368020029005B689D
:1053B0002000984770BD10B50B1E02D0FFF7EEFF1E
:1053C0000300180010BD10B503688A685B6809689F
:1053D000984710BD10B5FFF7EEFF10BD10B502499C
:1053E000FFF7DCFF10BDC04684C1000070B50500AA
:1053F000FFF7E9FF04002800FFF7F0FF201870BD59
:1054000070B50400FFF7D7FF05002000FFF7E6FFA7
:10541000401970BDF0B58BB06B4615000022053306
:105420000600DA770800012D00D80A2509AC29000A
:1054300003F028FACAB2130037330700DBB2092998
:1054400002D813003033DBB2013C2370002FEED1C1
:1054500021003000FFF7AFFF0BB0F0BD10B5002A00
:1054600004D10368C9B21B68984710BDD2B2FFF7D8
:10547000D1FFFAE710B5FFF7F1FF10BD10B504003A
:10548000FFF702FC014B1C6010BDC046500000201D
:105490000122024B52421A607047C0465000002061
:1054A000164A10B51368591C26D0013B1360002B17
:1054B00022D172B6124B134A0433934213D9124AC3
:1054C00001211000147D0C42FCD02021148BFF31EF
:1054D0009B085B0021431183D3610C4B1380012394
:1054E000027D1A42FCD0BFF34F8F094B094ADA60A4
:1054F000BFF34F8FC046FDE710BDC04650000020EF
:1055000000200000030200000040004102A5FFFF50
:1055100000ED00E00400FA05016070479446F0B524
:105520009E1E721E96416246056892072F683606D7
:105530003A4332432A60072505AC24780068A40169
:105540002940214342680024022B00D05C03114310
:1055500021434160F0BD30B5C0250368AD031C6830
:1055600012052A402243C0240904A4022140114309
:10557000196003685A6814435C6030BD01230268F7
:1055800011680B43136003681A68D207FCD4DA6908
:10559000D207F9D470470223026811680B431360E5
:1055A0000268D3699B07FCD4704703681A7ED20750
:1055B00002D41A7E9207FCD57047002203685A83F2
:1055C00070470368187E4007C00F70470368187E55
:1055D000C0097047802302685B42117E0B4313763B
:1055E00070470368588B8007C00F7047022302681A
:1055F000518B0B43538370470368187EC007C00F5D
:1056000070470368188DC0B2704703681A7ED207CE
:10561000FCD589B2012019857047012203689A756B
:105620007047012203681A757047000070B50126A3
:1056300004684B0833403140256809075B070B437A
:105640002B43236004685100034803F095F80138A8
:10565000C0B2207370BDC046006CDC02012302683A
:1056600011680B43136003681A68D207FCD4DA6927
:10567000D207F9D470470223026811680B43136004
:105680000268D3699B07FCD470470368DA69920704
:10569000FCD402211A688A431A6070470268936A30
:1056A0005B0A5B021943916203681A7E5207FCD5BC
:1056B000986AC0B2704700000368214A30B593422F
:1056C0002FD0204A93422FD01F4A93422FD01F4AF7
:1056D00093422FD01E4A93422FD01E4A93421FD18D
:1056E0000E2319220121032599401B48C024016083
:1056F00099082B40AB40FC359D4089000918A40057
:105700000859A843C0259D402B0003430B5180231B
:10571000DB011A43114B5A805A7852B2002AFBDB44
:1057200030BD09231422DDE70A231522DAE70B2313
:105730001622D7E70C231722D4E70D231822D1E72E
:1057400000080042000C0042001000420014004219
:1057500000180042001C004200E100E0000C004084
:10576000F8B504000F0016001D00FFF7A5FF20008C
:10577000FFF704FF1C21BB000B4071072268090CD6
:105780000B431360842322689375012F1AD11021D3
:10579000012E00D008390C4B69431868C00002F094
:1057A000EBFF0722216802408B895203DB04DB0CEC
:1057B00013438B81226803049089DB0C400B400368
:1057C00018439081F8BDC04648000020F7B5060098
:1057D000019308AB1F780D001400FFF73FFF300066
:1057E000FFF76AFFC022240592031440BA070C2772
:1057F00017433C43C0270722BF022D0433683D40B6
:1058000025431D60019B316813401A0080239B02D1
:1058100013434B60F7BD10B50400FFF7E7F9E060F4
:10582000236820005B699847002808DAFFF7DEF953
:10583000E368C01AA3689842F2D30120404210BD29
:1058400070B50D0009490400160000F083FA280025
:10585000FFF7E1FF002806DB864204D0C1B220003A
:1058600000F00AFBF3E7200070BDC04682BD0000D7
:105870000120704710B50368014A1B6A984710BDA4
:10588000130400000300FC33D9699A69914203D0E4
:10589000DB69C018007D704701204042FBE710B56E
:1058A00004000069FFF76AFE22000023FC329361C6
:1058B000D36186229200A4186360A36010BDF0201B
:1058C00001403039484248417047F0231B011940DC
:1058D000802306209B0099420AD00133FF33013018
:1058E000994205D0802302385B00994200D0002005
:1058F00070470F2001400020012903D00239481EC3
:105900008141481C704700008923F0B5182685B0F6
:1059100002919B000400C05C330008214343324DD8
:105920001700EB185956FFF7A3FC304B0821E05C39
:1059300033004343EB185956FFF79AFC2C4BE25CBB
:105940000393022A09D11133E05CFF2805D0082116
:105950004643AE197156FFF78BFC8A26B600A05D50
:10596000FF2819D00121FFF7F3FB1822A35D21497D
:105970005A43AB56AD18DB0158188B218900605093
:105980001D4901225B188C218900635069688A4097
:105990008D21890062501A600122029B110020694A
:1059A000FFF7DEFE39002000FFF78FFF390005000A
:1059B0002000FFF79EFF390006002000FFF77FFF61
:1059C00033000090290020690122FFF7A7FD0B4B4F
:1059D0002069E25C039BE15CFFF7BDFD2069FFF7F6
:1059E000DAFD05B0F0BDC04614BE0000250200007F
:1059F0002702000018440041144400412602000020
:105A0000802210B504005200002105F0D0FE2300D2
:105A10000022FC335A6020009A6010BDF7B51D00CB
:105A200008AB1B780400009309AB1B7816000193A8
:105A300000234360FA239B008360114B0F0008335F
:105A400003601430FFF7DCFF20001D30FF30FFF74C
:105A5000D7FF89236A469B002761E654094B1278D9
:105A6000E554094B2000E2546A46084B1279E2548F
:105A70008A22293BFF3B9200A3541032A354FEBD5F
:105A800088C1000025020000260200002702000055
:105A90000300FC3358689B68C01A01D50130FF3001
:105AA000704710B5040020001D30FF30FFF7F0FFF5
:105AB0000028F8D12069FFF778FD10BD10B514302B
:105AC000FFF7E6FF10BD0300FC3359689A68914266
:105AD00004DB5A689868801AFF30704798685B68E2
:105AE000C01A0138F9E710B51D30FF30FFF7EBFFA2
:105AF00010BD10B504000069FFF773FD002805D044
:105B00002069FFF77EFD2069FFF770FD2069FFF730
:105B100058FD002820D02069FFF773FD2200FC32D9
:105B20009369D1690133DBB28B4203D0916961186B
:105B3000087593618A239B00E35CFF2B0CD0200047
:105B40001430FFF7C0FF092806DC8B238D229B0051
:105B50009200E358A2581A602069FFF74DFD002813
:105B60001AD020001D30FF30FFF792FF002822D00E
:105B700086239B00E31899685A68914218D08E21B9
:105B80009A684900A218515C9A680132D2B29A60B0
:105B9000C9B22069FFF739FD2069FFF717FD00281A
:105BA00005D02069FFF716FD2069FFF706FD10BD3F
:105BB00001214942ECE72069FFF733FDECE70000E3
:105BC00070B5040000690D00FFF716FD00283ED1F6
:105BD000FF2686239B00E3185A68996801323240F9
:105BE0008A4223D1EFF31083DB0710D41E4B5B688E
:105BF000DB05DB0DEDD0103B5BB2002B10DA0F2282
:105C00001340083B9B08194A9B009B181B6820699E
:105C1000FFF7F2FC0028DCD02000FFF76AFFD8E78E
:105C20009B08C033124A9B009B58F0E75A68013228
:105C300016409A68964205D08E215A684900A218EB
:105C400055545E602069FFF7E8FC012070BD20001C
:105C50001D30FF30FFF71CFF0028B9D12900206953
:105C6000FFF7D3FCF1E7C04600ED00E01CED00E0DB
:105C700000E100E0030070B5FC33D9699A690400C3
:105C800091421AD0DA698218157DDA690132D2B2EE
:105C9000DA618A239B00E35CFF2B0CD020001430D8
:105CA000FFF711FF0A2806DD8C238D229B0092004E
:105CB000E358A2581A60280070BD01256D42E8E73C
:105CC00010B504000068002801D005F04BFD20004D
:105CD00010BD10B504000068002801D005F042FD99
:105CE00000232360A360636010BD70B504000D0045
:105CF0000068013105F00CFE031E01D0012028C40C
:105D000070BD036810B50400002B04D043688B42BB
:105D100001D3012010BD2000FFF7E7FF0028F9D0D4
:105D2000A368002BF5D122681370F2E770B50E005E
:105D3000110004001500FFF7E4FF002804D1200043
:105D4000FFF7C7FF200070BDA5603100206805F097
:105D500005FEF7E7002370B504000D000360436003
:105D60008360994207D0080005F000FE2900020078
:105D70002000FFF7DBFF200070BD70B505000800B4
:105D80000C0005F0F3FD210002002800FFF7CEFF14
:105D900070BD10B5002304008AB023606360A36067
:105DA000080001A901F0BDFB200001A9FFF7E5FFF4
:105DB00020000AB010BD70B5050000680C00002876
:105DC0000FD0096800290AD06B68A268934206D3F5
:105DD00005F0C4FDA368AB600023A36070BD05F0AF
:105DE000C1FC23682B6063686B60A368AB60002311
:105DF00023606360F1E710B50B000400884205D012
:105E00000968002904D09A68FFF790FF200010BDB0
:105E1000FFF75FFFFAE7002310B50400036043605B
:105E20008360FFF7E8FF200010BD10B50400884232
:105E300001D0FFF7C0FF200010BDF8B504000F1E11
:105E400002D100263000F8BD0126002AFAD083686E
:105E5000D5182900FFF755FF0028F2D02368A26863
:105E60003900981805F07AFDA560EBE710B58A684F
:105E70000968FFF7E2FF10BD07B5002201AB1970FA
:105E80005A7019000132FFF7D8FF0EBD13B50A2270
:105E90000400080001A901F044FB01A805F066FD1B
:105EA00001A902002000FFF7C8FF16BD70B504006D
:105EB0000D1E04D12000FFF70CFF200070BD08006C
:105EC00005F054FD290002002000FFF7B6FF00286E
:105ED000F0D0F2E7026810B50B68002A13D0002B4F
:105EE0000CD181681800002907D0107805E0896876
:105EF0001000002901D01878404210BD1900100090
:105F000005F022FDF9E7002BF1D11800F5E78268D2
:105F100010B594468A680023944504D1FFF7DAFF50
:105F200043424341DBB2180010BD70B50D00002A9A
:105F300006D0002904D084689C4202D800230B704C
:105F400070BD013AE41A944200D91400016822009D
:105F5000C918280005F011FD00232B55F0E7F7B50F
:105F600015008A680F00002A1BD08368002B18D008
:105F70009A4216D8AB4200D85D1E06680124300054
:105F8000731964420193019B98420CD8396805F05B
:105F900008FD002807D0831BAB4200D81C0001304D
:105FA000F1E7012464422000FEBD10B583688A68D1
:105FB0009A1AFFF7D4FF10BD70B5856804008D42B2
:105FC00013D9002A11D06B1A934200D9130020680C
:105FD000ED1ACB18C3186A1A4018A560190005F00D
:105FE000CCFC00212268A368D15470BD012210B5F9
:105FF0005242FFF7E1FF10BD0020704770B50F2639
:10600000CB1D013902003240D5B22C0000093034DA
:10601000092A00DD07341C70013B8B42F2D170BDB0
:1060200010B50C000B4B1868FFF7E8FF21000A4B76
:1060300008311868FFF7E2FF2100084B103118689B
:10604000FFF7DCFF2100064B18311868FFF7D6FF79
:10605000202010BD0CA0800040A0800044A0800043
:1060600048A0800008B4024B9C46103808BC60472A
:106070002160000070473F20704713B56B460268EF
:10608000D9710733546819000122A04716BD0000DA
:1060900070B50A260B7892B06E44023305000B707F
:1060A0003C220021300005F082FB394801AC06900B
:1060B000384824210790062020776846364AA17484
:1060C0002281364A364BA281FD3AFF3A8018C177C9
:1060D000684623390630C17768460730C17702A881
:1060E000C1770720F277032608316944C87703A9EE
:1060F000CE7710212B366E443170092621851F3151
:1061000069440E700CA9053E0E70332123800223D2
:1061100069440B7006360DA90E7022493536A186EA
:106120003B216E44307010A86274E27702703D32F9
:1061300069446A440B70137040210022E37023719C
:106140006371A37341336B44218719705A702B7D9F
:10615000C039A370A37263770133DBB2A3776A7D82
:106160000B200D0068441543C57731206844037047
:106170003A23501C6B441870412302320A436B448B
:106180001A7021004222084800F06EFF12B070BD64
:106190001001042402060524090400000102000085
:1061A000080B0000070500006407002008B4024B3C
:1061B0009C46103808BC60479160000070B5027DB5
:1061C0000B790C0000259A420BD10B784E78A12B4D
:1061D00009D1212E05D107221F49204800F044FF94
:1061E0000135280070BD212BFBD1202E2BD1072299
:1061F00019491A4800F07AFE174B1A7859780902A3
:1062000011439A7812041143DA7812060A43962150
:10621000C9008A421DD1DB79DB071AD4FA20FFF7C7
:106220002DF900210D4801F02BF80125232ED8D19E
:10623000E378A2781B021343094A00210748136040
:1062400001F01EF8CDE7222EEFD18A78024BDA71E9
:10625000D2E7FFF71DF9E4E75800002064070020AB
:106260005400002008B4024B9C46103808BC60471C
:10627000BD61000010B5417D006A013100F06EFD86
:10628000034B1B6801335A1E9341181810BDC046BA
:106290006000002010B5417D006A023100F074FDFD
:1062A00010BD10B5417D006A023100F03BFD10BD0C
:1062B00070B50D00417D0400130002312A00006A10
:1062C00000F028FE002801D10123636070BD0000AA
:1062D00010B5054C23685A1C04D103685B699847C4
:1062E00003002060180010BD60000020074A030072
:1062F000106810B5411C03D001235B42136010BD30
:10630000597D186A013100F0B5FDF8E76000002002
:106310007047002070470000FA239B0010B583608F
:106320000F4B0022C3820300283383610D4B04000E
:106330004260C2611800443323610830631D21624A
:106340002060DA778323A362813BE3628033236397
:1063500000F0CCF82100103100F09CF8200010BDB6
:1063600003020000BCC10000022110B5094B1A68ED
:10637000437D5B01D318FF339C7A21439972437D9F
:106380000133DBB25B01D3180122FF33997A0A4350
:106390009A7210BD1C0C00207047000010B5082236
:1063A0000021024805F003FA10BDC0465800002045
:1063B00010B5FEF71BFCF423FF330024984207D9E5
:1063C000044B0A20DC79631E9C41E4B2FEF744FCD6
:1063D000200010BD5800002010B502490248FFF708
:1063E0009BFF10BD64070020FC06002070B50E0066
:1063F00000254468002C0BD0236831005B68200026
:106400009847002802DB2D18E468F3E701256D4268
:10641000280070BD70B50D004468002C08D02368BA
:1064200029009B6820009847002802D1E468F4E71F
:10643000200070BD70B50D0000264468002C09D006
:106440002368290020001B69984736182D18F6B2DA
:10645000E468F3E730002C7070BD70B50D0044683F
:10646000002C08D0236829001B68200098470028CA
:1064700002D1E468F4E7200070BD70B50D004468F7
:10648000002C06D023682000DB6829009847E468C8
:10649000F6E770BDF0B58C79457803002A19002025
:1064A000072A1FDC5A68824216D159601A78C879C7
:1064B0000A7112184D711A7000220B4DD0B284422D
:1064C0000FD98F6858789600F759860001307751B8
:1064D00001325870F2E70200D0680028FBD1D16089
:1064E000E4E70120F0BDC0463C0700200121064A38
:1064F00010B5136805480B4004D180246400048063
:106500004360116010BDC0463007002034070020F2
:10651000704710B5040001F00CF8200010BD000019
:10652000F0B5822919D1C3B2294D5A01AA1891692F
:10653000284C80010C40C0218905214391612649E6
:10654000083340187021506128685B011A5C8A4347
:10655000110030220A431A54F0BD0029FCD1C02694
:10656000C1B21B4C4B01E3189A681A4DB6052A407C
:1065700032439A60194A800182185A600A0007273C
:10658000246808325201115DB9430F0001213943DB
:1065900011559F6910493D4040182E439E61586136
:1065A0007020115D81430800102101431155996845
:1065B0000B48A2180840802149030143996099685B
:1065C000890B89039960402311790B431371C3E749
:1065D0001C0C0020FFFFFF8F9007002050090020B7
:1065E000FF3F00F0EFF3108303600123436072B6B6
:1065F00070470368002B02D162B6BFF36F8F7047FC
:10660000F7B50600FC36B3690400002B18D1B22799
:106610007F00C55D6846FFF7E5FF019BEDB2013BDA
:1066200002D3E55DEDB2FAE768460193FFF7E1FFBB
:10663000002D01D10020FEBD706E336EC01AFAE746
:106640006846FFF7CFFFD8220025019B5200013B8F
:1066500002D3A55CEDB2FAE768460193FFF7C9FFE4
:10666000002DE7D0D6235B00E058043BE358E5E774
:1066700010B54468FC3043690B48DBB25A01A218DC
:106680009168083308408021490301439160916873
:106690005B01890B890391602268D3184022197924
:1066A0000A431A7110BDC046FF3F00F0F7B5050060
:1066B000FC356B694268DBB21900040008311068D0
:1066C00049014118C979C90711D55B01D2189368EE
:1066D0009B049B0C0CD12000FFF7CAFF63681A686B
:1066E0006B69DBB208335B01D3187F22DA71F7BD27
:1066F000E969002923D16B66230001266933FF3342
:10670000EE6168465360B227FFF76CFF7F00B2214D
:10671000019BFF31013B5A1C38D0D822E65552006C
:10672000A25C581ED2B26254625C8446002A04D134
:1067300020000193FFF79CFFE9E76346EBE7D621D2
:10674000490063500023EB6123001D33FF33536086
:106750006846D826FFF746FF01277600B221019B45
:10676000FF31013B5A1C11D0B222A7555200A25C46
:10677000581ED2B26254625C8446002A04D12000C2
:106780000193FFF775FFE9E76346EBE7684601937E
:10679000FFF72FFFA2E7F7B5060068463400FFF7C2
:1067A00021FF0027FF22019BFC34013B0DD3E06851
:1067B0002169884204DBE7682069D71B3F18F4E7AA
:1067C0002769E1687F1A013FEFE768460193FFF709
:1067D00010FFA3696846002B52D1FFF703FFB221D7
:1067E000019B4900013B5A1C0CD0755C5A1EEDB24E
:1067F000002D05D168460193FFF7FBFE2800FEBD82
:106800001300F0E7684601930025FFF7F2FEFF2230
:10681000236EBD4214D0616E994211D9591CF318F0
:106820002166FF33587FE36821690133C0B213400A
:106830008B4203D0E16871180872E3600135E7E725
:10684000626E9A42DAD1002323660133A36168465F
:10685000B224FFF7C7FE6400B2220021019BFF3281
:10686000013B581CC6D03155B05C5F1E002805D0D6
:10687000B15430000193FFF7FBFEEDE73B00F0E77A
:10688000FFF7B0FED821019B4900013B5A1C06D0FE
:10689000755C5A1EEDB2002DACD01300F6E76846C9
:1068A0000193FFF7A6FED623D4225B0000259C4669
:1068B0005200B358BD4203D061467158994220D866
:1068C0006246B2589A4299D1D42200235200B35062
:1068D0006846A361D824FFF785FE6400B222002138
:1068E000019BFF32013B581C00D183E73155B05C5E
:1068F0005F1E002819D0B15430000193FFF7B8FE95
:10690000ECE7591CB150FF21F3186933FF331878B5
:10691000E368C0B201330B4021698B4203D0E168C8
:1069200071180872E3600135C3E73B00DBE710B57F
:106930000400FFF730FF2300FC331969DA68914245
:1069400003D01B69E418207A10BD01204042FBE708
:1069500010B50400FC34FFF71EFFE0682369C01A7D
:1069600001D50130FF3010BDF0B585B00192009126
:106970000500FFF710FF02A8FFF734FE01200024F6
:10698000FF26039B40425A1E531C1FD02B00FC3392
:1069900001998C4218D2D9681F69C91B01D50131F0
:1069A000FF31002910D01969DF688C460100BC4511
:1069B00006D019691F69691801373740097A1F61C4
:1069C000009F39550134E3E7013ADDE702A803925D
:1069D000FFF70FFE200005B0F0BD37B56B46DC1D9C
:1069E00000230D002370FFF781FD2100FFF7FEFC5F
:1069F0002B681818286020783EBD00002023F7B5CA
:106A0000414A0500D1690F200B43D36101223F4960
:106A10000B7813430B703E4B197881431970062194
:106A20001C78214319703B490C7822430A701A786C
:106A300002401A70602219780A431A70364B374A9E
:106A40005A805F78FF09FCD13548FEF7C9F8012369
:106A5000344C354E2268300011780B43137080227D
:106A60003900520004F0A3FE22689378DB07FCD4BF
:106A700056621F262D4B1B68590B980C9B01314009
:106A800030405B0FB14200D105211F2800D10238F0
:106A9000072B00D1043B31408901178D0191244916
:106AA00030400F40019939431185118D0700B143E2
:106AB000080038431085118D18031E4B0B407F21B1
:106AC000034313851378C1200B40137004232268FD
:106AD000800011780B430C211370226813898B43BB
:106AE000154913810B581B021B0A0B5080230B60A6
:106AF00011787E3B0B431370012300212B700F484C
:106B0000FFF74AFCF7BDC04600040040584400416E
:106B10003C44004159440041000C00400640000044
:106B2000917400001C0C0020200C002024608000C8
:106B30003FF8FFFFFF8FFFFF00E100E0FC060020B1
:106B40000078002810D00121084B1B681A898A435D
:106B50001A810822198B0A431A830422198B0A43CB
:106B60001A830022024B1A607047C0461C0C00209A
:106B7000140C002010B50F4A93699B0B9B03936183
:106B800013680222FF331A729879823A02439A718B
:106B90001A7A9207FCD57F24074A2140937A08008D
:106BA000A3431900802301439172917A5B420B4306
:106BB000937210BD1C0C00200050004110B50C0059
:106BC000FFF794FC2100FFF748FC002804D1034A9A
:106BD00093699B0B9B03936110BDC0461C0C002066
:106BE000F7B50D00832A19D1CBB2404C5A01A21837
:106BF00091693F48AD010840C02189050143916179
:106C00003C4920686D187021083355615B011A5C9E
:106C10008A43110040220A431A54F7BD022A5FD169
:106C2000354B8A00D058002802D003685B6998472A
:106C3000DA20400000F079FC802204002B4E2F4B1C
:106C40004660036052000021083004F0B0FD2200CD
:106C5000B2210023FC324900D360556113611366F1
:106C60009361D3615366635444316350043163507C
:106C700004316354B221FF316354FF202B000340E1
:106C80005901019371188F68194BAD003B40C02723
:106C9000BF051F438F600727019B366808335B01E0
:106CA000995DB9430F000321394399552300516978
:106CB000666801401D334901FF3371184B606368FA
:106CC00052691B68024052019B1801221B18997AD5
:106CD00020000A439A72FFF7CBFC074BEC509CE76D
:106CE00011002800FFF71CFC97E7C0461C0C002091
:106CF000FFFFFF8F90070020680700201CC20000E4
:106D000070B505000124064BA200D258002A06D017
:106D1000210028000134FFF763FF0A2CF3D170BD76
:106D20003C0700200B4BCAB20B488901C91853011C
:106D3000C318596199690832890B890399610368FD
:106D400052019A180223D3715179823B0B4353713C
:106D50007047C046900700201C0C0020084B8A009A
:106D6000D05810B5002803D003689B68984710BD21
:106D7000C9B2044B4901591888688004800CF6E7B1
:106D8000680700201C0C002010B50C00FFF7E6FF80
:106D900000280CD0064BE4B21B68083464011C19AF
:106DA000802362795B42134363710223E37110BD58
:106DB0001C0C0020F0B51C002A4B85B01B68070096
:106DC0000D000292002B4AD0274B8A00D058002891
:106DD00008D0036822005B680299984704002000ED
:106DE00005B0F0BD3800FFF7B9FF844204D929008F
:106DF0003800FFF7B3FF04000121EBB21B4E0393F1
:106E00005B010193F21893689B0B9B039360019ABB
:106E1000336802989B18FF335A7A0A435A72144B0C
:106E2000A901C918220004F0B9FC002CD7D0290010
:106E30003800FFF793FF0028D1D14021039B32682F
:106E400008335B01D3181879014319710121D971F5
:106E5000019BD318FF339A7A0A439A72BFE7012441
:106E60006442BCE7140C0020680700201C0C0020C2
:106E70005009002013B56B46DC1D22000123FFF7EB
:106E800099FF012801D1207816BD01204042FBE77F
:106E900070B5CBB2124A13485C01890189180219F6
:106EA00051609168104D08330D40802149032943FA
:106EB000402591609168890B8903916001685A01AE
:106EC0008A1816793543157195796D06FCD55B01E5
:106ED000C918CB79DB07FCD500198068C0B270BD3A
:106EE000500900201C0C0020FF3F00F070B50D0081
:106EF00000211400FFF7CCFFA04200D9200000239E
:106F00000349A34203D0CA5CEA540133F9E770BDD8
:106F100050090020F0B51E003A4B85B01B680F00E9
:106F20000192002B35D08023DB019E4231D8002511
:106F3000354B8A01D3180293002E2CD0334B1B689B
:106F40000393FF233B401C0000930834039B640120
:106F50001C19A379DB0921D02D4B2E49186801F0AB
:106F60000BFC2D4B1721584301F006FC2B4BE2790B
:106F7000920713D4DA5D002A01D10138F7D2012239
:106F8000DA55009B5A01214B9B189A69920B920388
:106F90009A6101256D42280005B0F0BD00221F4B0B
:106FA0003400DA553F2E09D9009B40245A01174B73
:106FB0009B188022996912060A439A61220001995E
:106FC000029804F0EBFB009BA1045A010F4B890CC3
:106FD0009B18029A2D195A619A69361B920B9203DB
:106FE0000A439A61009B039A08335B01D31802227B
:106FF000DA715979823A0A435A71019B1B1901933C
:107000009AE7C046140C0020900700201C0C0020BA
:107010004800002040420F00701101008507002049
:1070200070B50D001C000D4BAE01F61811003000BC
:10703000220004F0B3FBEDB209496D014D196E61F8
:10704000AB69084A20001340AB61AB69A2049B0BFB
:10705000920C9B031343AB6170BDC04690070020A8
:107060001C0C0020FF3F00F0F7B5104B01901B787F
:107070000F001500002B0CD10D4B16001C78002CB6
:1070800009D00C4E0C4834882018641904F086FB93
:1070900034802800FEBD002EFBD03A1933000021B9
:1070A0000198FFF7BDFF2418361AF4E7100B0020F3
:1070B000110C0020120C0020110B0020F8B50F005D
:1070C00016000024012A26D9100004F041FB050017
:1070D000380004F04BFC03230222013040002870EA
:1070E0006B7096420DD9397800290AD0531CDBB257
:1070F0000137A9549E4203D00232EC54D2B2F0E7D9
:10710000320029000548FFF7AFFF441EA041C4B27A
:10711000280004F027FB2000F8BDC04664070020CB
:10712000F0B50024012685B0184B0F0069461E708B
:1071300005000094FFF751FC154B01A90B806A3B39
:10714000FF3BCB715A330B72009B8C7109334B8020
:107150000E4B4E7108711C703A00092F0FD00D4F65
:1071600009223E700C4E280000943480FFF77CFF0B
:1071700069462800FFF731FC328808493C70280036
:10718000FFF772FF012005B0F0BDC046100B0020D4
:1071900009020000110C0020120C0020110B00202D
:1071A00070B5CE7892B005000C00022E0BD18B7911
:1071B000C9792E4809021943FFF7B2FF411E8841E1
:1071C000C0B212B070BDFFF791F92100FFF722F9AC
:1071D000002803D0C117081AC00FF2E7012E0ED104
:1071E000E279A37912021A432149112A3CD8D2B27A
:1071F000002A39D02800FFF737FF0120E1E7032EEE
:10720000DFD1A378002B28D0022B08D1E279A37913
:10721000120218491A432800FFF750FFD1E7012B4B
:1072200005D1E279A37912021A431349F3E7032B3C
:10723000C7D10100412201A804F0B9FAFFF756F9BD
:1072400001A9FFF7F7F8002805D0E279A379120227
:107250001A4301A9DFE70378FFDEE279A37912027E
:107260001A430649032AC2D90A78C3E764070020F3
:1072700058C2000038C200004CC2000048C20000E2
:10728000CBB204495B01C9188B699B0B9B038B61D3
:107290007047C0461C0C002037B5050048780C002C
:1072A0000B2810D801F05EFA061B0F2B0F4045612A
:1072B000494C5A5D097801AA002906D102231180A0
:1072C0002800FFF7ADFE01203EBD00231380284BB0
:1072D0001B78012B00D1137002230021F0E78A787C
:1072E0000023012A03D101AA1380224BF0E7204A90
:1072F0001370214A93699B0B9B039361E3E78C789E
:10730000012C06D100211B4B01AA1C701170230017
:10731000D6E70120002CD7D1154B174A1870936976
:107320009B0B9B039361CFE789782800FFF722FC32
:10733000C9E72800FFF734FFC6E701230F4ACCE76F
:107340000B780020DB06BFD12800FFF7D9FCA2781C
:107350000A4B0B481A60FFF707F8CAE70123094AEE
:10736000BBE78A78074B1A60C3E70020ACE7C0464A
:10737000840700208C0700201C0C0020140C002027
:10738000FC060020180C00203B4BF7B51E780500CA
:10739000002E5FD1394C23689A8B12070DD5082235
:1073A00031009A833000FFF7BBF810222368FF33C7
:1073B000997A0A439A72324B1E6023689A8B52075D
:1073C00001D504229A83FF331A7A920603D520222C
:1073D000597A0A435A721A7AD20623D569460800A6
:1073E000284AC0CAC0C0A268920B9203A260402281
:1073F000587902435A7160230A7828001A422AD128
:10740000FFF74AFF2368FF33002827D080229979AD
:1074100052420A439A711A7A520603D54022597A87
:107420000A435A727F2601252368FF331E722F00FC
:10743000236808377F01DB19DB79002B07D0124B5B
:10744000AA00D05800280DD003681B689847013562
:10745000082DECD1F7BDFFF7B1FBD3E720210B4A94
:107460009171D8E7FFF742F82900FFF706F8236883
:10747000DF19FE71EBE7C046110C00201C0C002048
:10748000140C00205009002068070020FF50004124
:1074900010B50248FFF778FF10BDC0466407002012
:1074A000014B024A1A6070471C0C0020005000413A
:1074B000F0B50C008BB01600002926D0931E222BAD
:1074C0002DD80A2A05D1002803DA0127404201AD50
:1074D0000AE00027FBE7310001F0D4F9CBB209291B
:1074E00016D830332B7001352A000028F3D101ABB8
:1074F000AB42F0D02300002F02D02D21631C21705D
:1075000001A98A4206D800221A7020000BB0F0BDF3
:107510005733E7E7013A117819700133F0E7002497
:10752000F3E710B5FFF7C4FF10BD10B504F010F974
:1075300010BD10B504F016F910BD0B0010B5010018
:10754000180004F0C9F810BDF0B557464E46DE46A7
:107550004546E0B58FB01D0006000F00140000F096
:10756000ADF9CE4B009001919A461B785BB29946DB
:1075700001333ED022002B002000290003F0F4FE4E
:107580008346002835D132003B003000390003F03B
:10759000EBFE00220390002800D06FE000233000B3
:1075A000390001F06FFA00282CD0002200232000BF
:1075B000290001F067FA8346002800D192E004AB6D
:1075C0009846012342460493B54B53604346039AC1
:1075D0001C615D611A629E60DF60424600230024E8
:1075E0009361D4614B46002B67D00023AD4C0093D0
:1075F0000194009801990FB03CBC90469946A24670
:10760000AB46F0BD0098019900F09AFF8146002832
:1076100000D19AE0009801990022002301F032FA8B
:107620000028E6D03000390000F08AFF0028E0D0C2
:107630002000290000F084FF0028DAD004AB98462F
:10764000042342460493964B146155615360002312
:107650000024136200239361D46153461B78966023
:10766000D7605BB2022B04D0404600F073FF0028C5
:1076700029D104F03FF82223036024E000232000F6
:10768000290001F0FFF90028B3D004AB984601238C
:1076900042460493824B4146536043465A461A621F
:1076A00000229E60DF601C615D617E4B8A61CB6160
:1076B000009201934B46022B9BD0404600F04AFFBC
:1076C000002800D18AE043461B6A002B04D004F056
:1076D00011F843461B6A03604346DC699B690093CB
:1076E000019486E72000290000F02AFF002800D13D
:1076F0007FE7002200232000290001F0C9F90028BB
:1077000000D176E704AB9846012342460493644BCC
:10771000536043465A469E60DF601A621C615D6199
:1077200053461B785BB2002B5DD0002042465E4979
:107730009061D161022B5BD103F0DCFF2123036058
:1077400043461B6A002BC7D0C1E73000390000F068
:10775000F7FE002800D15DE72000290000F0F0FED0
:10776000002800D156E70098019953461B78020083
:107770005BB29B460B0003F0F7FD04AB9846002874
:1077800062D1032342460493454B14615561536013
:1077900010629660D760454B20002900002203F05C
:1077A00029F85B4604000D00002B27D1E02241465A
:1077B0003F4B12068A61CB61300000220023390062
:1077C00001F066F900282AD1404600F0C3FE0028E7
:1077D000B6D103F08FFF22230360B1E703F08AFFE5
:1077E000212303606FE74246002300249361D461A4
:1077F000404600F0AFFE0028A2D19DE7002241469E
:107800002C4B30008A61CB6100220023390001F04B
:107810003FF9002835D15B46022BDAD0D4E72000AF
:10782000290000F09FFE22002B0001F02BF9002818
:1078300005D1E022204B120641468A61CB615346B6
:107840001B785BB29B46E6E7012342460493144B48
:10785000536043464A469E60DF601A621C615D6168
:107860005B46002BBFD0002300221900100002F05D
:10787000B7FB43469861D9615B46022B00D15BE7B9
:10788000B6E72000290000F06DFE22002B0001F079
:10789000F9F80028D3D10022034BCDE76400002083
:1078A0006CC200000000F03F0000F0FF0000E03F6D
:1078B000FFFFEF470000F07FFFFFEFC7F0B557462F
:1078C000DE464E4645465C006408E0B598461F001B
:1078D000230093B083468A46160013430CD07D4B99
:1078E0004D00029181466D089D4212DD7A4B9C4607
:1078F0005B4665441D4361D10023784C009301949D
:107900000098019913B03CBC90469946A246AB46FC
:10791000F0BD9D4250D09C42E8DC6E4B9C426BD047
:10792000002304935346002B69DB002A10D1694BD6
:107930009C424CD0694B9C4200D1A3E08023DB05E4
:10794000984500D1BCE0664B984501D100F0D6FBCC
:107950005846514600F0F0FD4B4600900191002B37
:1079600007D1002D67D053465C4A9B009B08934289
:1079700061D05346DB0F013B99464A46049B1343B3
:1079800000D190E0574B9C4200DCBBE0564B9C4240
:1079900001DC00F010FC554B9D4201DC00F004FCC2
:1079A0004346002B23DD524A524B1000190002F0CF
:1079B00021FF00900191A3E7002805D04E4800F078
:1079C000CBFD009001919BE7AC42F7DCA5E75A465E
:1079D000414BEB18134300D18EE7444B9D4200DC32
:1079E00099E3434600960197002B00DB88E70023CC
:1079F00000240093019483E7002A91D076E73F4B5F
:107A00009C423CDC394B9C428FDD3D4923158C4622
:107A10006344142B00DCB2E33421CB1A3100D9408B
:107A200008009840904200D07FE7012319400133BD
:107A30005B1A049379E74346002B07DA009A019B0F
:107A40000020264902F0CCFA00900191029B002B05
:107A500000DB55E7204B9C46049B65441D4301D148
:107A600000F00EFC049B012B00D049E7009C019D17
:107A70008021220009066B180092019340E702233F
:107A8000049352E758465146434600900191002B1B
:107A900000DB35E75A4653460020104902F0A0FAB1
:107AA000009001912CE75A4653465846514603F040
:107AB00013F902000B0002F093FA009001911FE706
:107AC0005A4653465846514602F094FE00900191A2
:107AD00016E7C0460000F07F000010C00000F03F35
